{
  "contractName": "HashFactory",
  "abi": [
    {
      "constant": true,
      "inputs": [
        {
          "name": "",
          "type": "uint256"
        }
      ],
      "name": "hashes",
      "outputs": [
        {
          "name": "",
          "type": "string"
        }
      ],
      "payable": false,
      "stateMutability": "view",
      "type": "function"
    },
    {
      "constant": true,
      "inputs": [
        {
          "name": "",
          "type": "uint256"
        }
      ],
      "name": "hashToOwner",
      "outputs": [
        {
          "name": "",
          "type": "address"
        }
      ],
      "payable": false,
      "stateMutability": "view",
      "type": "function"
    },
    {
      "anonymous": false,
      "inputs": [
        {
          "indexed": false,
          "name": "id",
          "type": "uint256"
        },
        {
          "indexed": false,
          "name": "text",
          "type": "string"
        }
      ],
      "name": "NewHash",
      "type": "event"
    },
    {
      "constant": false,
      "inputs": [
        {
          "name": "_text",
          "type": "string"
        }
      ],
      "name": "createHash",
      "outputs": [],
      "payable": false,
      "stateMutability": "nonpayable",
      "type": "function"
    },
    {
      "constant": true,
      "inputs": [
        {
          "name": "id",
          "type": "uint256"
        }
      ],
      "name": "getHashContent",
      "outputs": [
        {
          "name": "",
          "type": "string"
        }
      ],
      "payable": false,
      "stateMutability": "view",
      "type": "function"
    },
    {
      "constant": true,
      "inputs": [
        {
          "name": "id",
          "type": "uint256"
        }
      ],
      "name": "getHasher",
      "outputs": [
        {
          "name": "",
          "type": "address"
        }
      ],
      "payable": false,
      "stateMutability": "view",
      "type": "function"
    },
    {
      "constant": true,
      "inputs": [],
      "name": "getHashistSize",
      "outputs": [
        {
          "name": "",
          "type": "uint256"
        }
      ],
      "payable": false,
      "stateMutability": "view",
      "type": "function"
    }
  ],
  "bytecode": "0x608060405234801561001057600080fd5b50610739806100206000396000f300608060405260043610610078576000357c0100000000000000000000000000000000000000000000000000000000900463ffffffff168063501895ae1461007d578063677763c2146101235780637fc83ec0146101905780638153bb49146101fd578063dd3fd0f4146102a3578063fe09d5571461030c575b600080fd5b34801561008957600080fd5b506100a860048036038101908080359060200190929190505050610337565b6040518080602001828103825283818151815260200191508051906020019080838360005b838110156100e85780820151818401526020810190506100cd565b50505050905090810190601f1680156101155780820380516001836020036101000a031916815260200191505b509250505060405180910390f35b34801561012f57600080fd5b5061014e600480360381019080803590602001909291905050506103f2565b604051808273ffffffffffffffffffffffffffffffffffffffff1673ffffffffffffffffffffffffffffffffffffffff16815260200191505060405180910390f35b34801561019c57600080fd5b506101bb60048036038101908080359060200190929190505050610425565b604051808273ffffffffffffffffffffffffffffffffffffffff1673ffffffffffffffffffffffffffffffffffffffff16815260200191505060405180910390f35b34801561020957600080fd5b5061022860048036038101908080359060200190929190505050610462565b6040518080602001828103825283818151815260200191508051906020019080838360005b8381101561026857808201518184015260208101905061024d565b50505050905090810190601f1680156102955780820380516001836020036101000a031916815260200191505b509250505060405180910390f35b3480156102af57600080fd5b5061030a600480360381019080803590602001908201803590602001908080601f016020809104026020016040519081016040528093929190818152602001838380828437820191505050505050919291929050505061051d565b005b34801561031857600080fd5b5061032161065c565b6040518082815260200191505060405180910390f35b60008181548110151561034657fe5b906000526020600020016000915090508054600181600116156101000203166002900480601f0160208091040260200160405190810160405280929190818152602001828054600181600116156101000203166002900480156103ea5780601f106103bf576101008083540402835291602001916103ea565b820191906000526020600020905b8154815290600101906020018083116103cd57829003601f168201915b505050505081565b60016020528060005260406000206000915054906101000a900473ffffffffffffffffffffffffffffffffffffffff1681565b60006001600083815260200190815260200160002060009054906101000a900473ffffffffffffffffffffffffffffffffffffffff169050919050565b606060008281548110151561047357fe5b906000526020600020018054600181600116156101000203166002900480601f0160208091040260200160405190810160405280929190818152602001828054600181600116156101000203166002900480156105115780601f106104e657610100808354040283529160200191610511565b820191906000526020600020905b8154815290600101906020018083116104f457829003601f168201915b50505050509050919050565b60006001600083908060018154018082558091505090600182039060005260206000200160009091929091909150908051906020019061055e929190610668565b50039050336001600083815260200190815260200160002060006101000a81548173ffffffffffffffffffffffffffffffffffffffff021916908373ffffffffffffffffffffffffffffffffffffffff1602179055507f880349e6b17b1e1c88d6b27fe4c77134221d6466c9fa6f3022a2c4cfe8227d4781836040518083815260200180602001828103825283818151815260200191508051906020019080838360005b8381101561061d578082015181840152602081019050610602565b50505050905090810190601f16801561064a5780820380516001836020036101000a031916815260200191505b50935050505060405180910390a15050565b60008080549050905090565b828054600181600116156101000203166002900490600052602060002090601f016020900481019282601f106106a957805160ff19168380011785556106d7565b828001600101855582156106d7579182015b828111156106d65782518255916020019190600101906106bb565b5b5090506106e491906106e8565b5090565b61070a91905b808211156107065760008160009055506001016106ee565b5090565b905600a165627a7a723058204010daf90d96e52717f4171e5bc2773fc08fbcf53a669a9e3019294d459c1e710029",
  "source": "pragma solidity ^0.4.18;\n\ncontract HashFactory {\n    event NewHash(uint id, string text);\n    string[] public hashes;\n\n    mapping (uint => address) public hashToOwner;\n\n    function createHash(string _text) public {\n        uint id = hashes.push(_text) - 1;\n        hashToOwner[id] = msg.sender;\n        emit NewHash(id,_text);\n    }\n\n    function getHashContent(uint id) public view returns (string) {\n        return hashes[id];\n    }\n\n    function getHasher(uint id) public view returns (address) {\n       return hashToOwner[id];\n    }\n\n    function getHashistSize() public view returns (uint) {\n        return hashes.length;\n    }\n}\n",
  "sourcePath": "/home/jonathan/coding/site/blog_examples/Solidity/hash_factory/contracts/HashFactory.sol",
  "compiler": {
    "name": "solc",
    "version": "0.4.24+commit.e67f0147.Emscripten.clang"
  },
  "schemaVersion": "2.0.0",
  "updatedAt": "2018-09-21T11:47:43.195Z"
}